:020000040800F2
:1000000000000220056D0008BB110008BD110008AA
:10001000BF110008C1110008C31100080000000052
:1000200000000000000000000000000081600008E7
:10003000C51100080000000021610008856100086A
:10004000556D0008556D0008556D0008556D000888
:10005000556D0008556D0008C7110008556D000862
:10006000556D0008556D0008D1110008556D000848
:10007000DD110008556D0008556D0008556D00082C
:10008000556D0008556D0008556D0008556D000848
:10009000556D0008556D0008556D0008556D000838
:1000A000556D0008556D0008556D0008556D000828
:1000B000556D0008556D0008556D0008556D000818
:1000C000556D0008556D0008556D0008556D000808
:1000D000556D0008556D0008556D0008556D0008F8
:1000E000ED110008556D0008556D0008556D0008AC
:1000F000556D0008556D0008556D0008556D0008D8
:10010000556D0008556D0008F9110008556D00087F
:10011000556D0008556D0008556D0008556D0008B7
:10012000556D0008556D0008556D0008556D0008A7
:10013000556D0008556D0008556D0008556D000897
:10014000556D0008556D0008556D0008091200082E
:10015000556D0008556D0008556D0008556D000877
:10016000556D0008556D0008556D0008556D000867
:10017000556D0008556D0008556D00080000000021
:08018000556D0008556D0008E3
:1001900010B5054C237833B9044B13B10448AFF3C1
:1001A00000800123237010BDC80100200000000062
:1001B000507C000808B5034B1BB103490348AFF35B
:1001C000008008BD00000000CC010020507C000829
:1001D00010F8012B11F8013B012A28BF9A42F7D0F1
:1001E000D01A704753B94AB9002908BF00281CBF6C
:1001F0004FF0FF314FF0FF3000F072B9ADF1080C55
:100200006DE904CE00F006F8DDF804E0DDE9022334
:1002100004B070472DE9F047089E04468846002B3D
:100220004BD18A42154667D9B2FA82F24AB1C2F17D
:10023000200701FA02F320FA07F7954047EA03087E
:1002400094404FEA154E230CB8FBFEF71FFA85FCCD
:100250000EFB178843EA084307FB0CF1994209D9C2
:10026000EB1807F1FF3080F01B81994240F21881B2
:10027000023F2B445B1AA4B2B3FBFEF00EFB10331B
:1002800044EA034400FB0CFCA44509D92C1900F1F5
:10029000FF3380F00781A44540F2048102382C44EA
:1002A00040EA0740A4EB0C0400271EB1D440002311
:1002B000C6E900433946BDE8F0878B4209D9002ED4
:1002C00000F0EB800027C6E9000138463946BDE85A
:1002D000F087B3FA83F7002F47D18B4202D38242D3
:1002E00000F2FA80841A61EB030301209846002E85
:1002F000E0D0C6E90048DDE702B9FFDEB2FA82F2DB
:10030000002A40F08F80491B4FEA154E1FFA85F8EE
:100310000127B1FBFEFC230C0EFB1C1143EA014339
:1003200008FB0CF1994207D9EB180CF1FF3002D20F
:10033000994200F2CD808446591AA3B2B1FBFEF077
:100340000EFB101443EA044408FB00F8A04507D94B
:100350002C1900F1FF3302D2A04500F2B6801846F6
:10036000A4EB080440EA0C409FE7C7F1200CBB4017
:1003700022FA0CFE4EEA030E01FA07F420FA0CF5FD
:1003800021FA0CF34FEA1E482543B3FBF8F92C0C75
:1003900008FB19331FFA8EFA44EA034309FB0AF4F7
:1003A0009C4202FA07F200FA07F10BD91EEB030395
:1003B00009F1FF3080F087809C4240F28480A9F1EF
:1003C000020973441B1BADB2B3FBF8F008FB1033FA
:1003D00045EA034400FB0AFAA24508D91EEB0404CF
:1003E00000F1FF336BD2A24569D90238744440EA68
:1003F0000940A0FB0289A4EB0A044C45C2464B46C7
:1004000054D351D0002E69D0B1EB0A0564EB03043C
:1004100004FA0CFCFD40FC404CEA0505C6E900541A
:10042000002747E7C2F1200320FA03F7954001FABD
:1004300002F021FA03F34FEA154E3843010CB3FBE7
:10044000FEF71FFA85F80EFB173341EA034107FB5D
:1004500008F38B4204FA02F407D9691807F1FF3C4C
:100460002FD28B422DD9023F2944CB1A81B2B3FB44
:10047000FEF00EFB103341EA034100FB08F38B4210
:1004800007D9691800F1FF3C17D28B4215D9023801
:100490002944C91A40EA07473BE73746304609E78F
:1004A0000746E7E61846FBE64145ABD2B8EB020A41
:1004B00069EB0E0201381346A4E76046E9E71846E7
:1004C00095E76746D1E781467CE702382C4447E749
:1004D000ACF1020C2B442FE7384608E73746E9E633
:1004E000704700BF2DE9F04F8DB0002407940894A9
:1004F00009940A940B940194814B1A6B42F01002F8
:100500001A631A6B02F010020192019A02941A6B9C
:1005100042F004021A631A6B02F004020292029A79
:1005200003941A6B42F080021A631A6B02F0800285
:100530000392039A04941A6B42F001021A631A6B35
:1005400002F001020492049A05941A6B42F002022E
:100550001A631A6B02F002020592059A06941A6B4E
:1005600042F008021A631B6B03F008030693069B14
:10057000DFF89C9122460121484604F0CFFD01227C
:100580000221484604F0CAFDDFF888812246042192
:10059000404604F0C3FD5B4F22464FF4704138469D
:1005A00004F0BCFD01228021384604F0B7FD4FF273
:1005B000FF730793032608960994DFF85CB107A937
:1005C000584604F02DFC4FF2300307930896099427
:1005D00007A9484604F024FC0125079508950994CD
:1005E0000A9407A9484604F01BFC022307930895C8
:1005F00009940A9607A9484604F012FC0795424B55
:100600000893099507A9404604F00AFC04230793C0
:10061000089509940A9407A9404604F001FC1023A8
:100620000793DFF8F8A0CDF820A0099507A9404668
:1006300004F0F6FB4DF6070307930896099407A903
:10064000324804F0EDFB4FF40069CDF81C9008949B
:10065000099507A9584604F0E3FB4FF400530793AC
:10066000CDF820A0099507A9284804F0D9FB40F24D
:100670001F4307930896099407A9384604F0D0FB56
:10068000CDF81C900894099507A9384604F0C8FBDA
:100690004FF470430793089509940A9407A93846C4
:1006A00004F0BEFB4FF4806307930896099407A9F2
:1006B000404604F0B5FB80230793089509940A96F9
:1006C00007A9384604F0ACFB22460521062005F0B8
:1006D0000BF8062005F04EF8224605210A2005F009
:1006E00003F80A2005F046F822460521282004F0E8
:1006F000FBFF282005F03EF80DB0BDE8F08F00BFED
:1007000000380240000C024000003110000402409A
:1007100000080240000002400010024000001110DA
:1007200000B585B00023009301930293039314480E
:10073000144A02604FF48032426083600361836137
:100740000362C362104A8262C3600122C261036312
:10075000426102F0D3FA68B90323009301230193A5
:10076000002302936946064802F0BEFB28B905B093
:100770005DF804FB06F0EEFBEEE706F0EBFBF6E7B8
:1007800048080020002001400100000F00B589B09A
:10079000002303930493059306930793026803F1E0
:1007A000804303F590339A4202D009B05DF804FB10
:1007B0000021019103F58C335A6C42F480725A6423
:1007C0005A6C02F480720192019A02911A6B42F003
:1007D00001021A631B6B03F001030293029B0823BF
:1007E00003930323049303A9014804F019FBDCE7F6
:1007F0000000024000B583B000220192094B196B42
:1008000041F4001119631B6B03F400130193019B66
:1008100005210C2004F068FF0C2004F0ABFF03B0AE
:100820005DF804FB0038024008B50B480B4B036031
:100830000B4B436000238360C3604FF4804202612E
:1008400043618361C361036202F034FC00B908BDF7
:1008500006F080FBFBE700BF90080020005400403A
:10086000A086010030B589B000230393049305935B
:10087000069307930268154B9A4201D009B030BD28
:1008800000250195124C236B43F002032363236B75
:1008900003F002030193019B4FF44073039312236F
:1008A000049301230593032306930423079303A9C9
:1008B000084804F0B5FA0295236C43F4001323644E
:1008C000236C03F400130293029BD7E7005400400B
:1008D000003802400004024008B50D480D4B03608B
:1008E0004FF48273436000238360C36003614361FC
:1008F0004FF400728261C3610362436283620A2320
:10090000C36202F0D3FC00B908BD06F023FBFBE78D
:100910003C0900200030014008B50D480D4B036034
:100920004FF48273436000238360C36003614361BB
:100930004FF400728261C3610362436283620A23DF
:10094000C36202F0B3FC00B908BD06F003FBFBE78D
:10095000E408002000380040F0B58DB00023079374
:10096000089309930A930B9303683B4A934204D07C
:100970003A4A934238D00DB0F0BD00240194384B70
:100980005A6C42F480525A645A6C02F480520192BA
:10099000019A02941A6B42F001021A631A6B02F078
:1009A00001020292029A03941A6B42F002021A6345
:1009B0001B6B03F002030393039B2023079302277F
:1009C000089703260A9605250B9507A9254804F0E4
:1009D00027FA30230793089709940A960B9507A9DD
:1009E000214804F01DFAC6E7002404941C4B1A6C3D
:1009F00042F480421A641A6C02F480420492049A0F
:100A000005941A6B42F004021A631A6B02F0040296
:100A10000592059A06941A6B42F002021A631B6B48
:100A200003F002030693069B0C2307930227089703
:100A300003260A9605250B9507A90C4804F0F0F942
:100A40004FF480630793089709940A960B9507A9BA
:100A5000054804F0E5F98EE7003001400038004019
:100A6000003802400000024000040240000802403A
:100A700000B58DB02022002104A806F043FC00231D
:100A8000019302931148124A0260436083604FF65B
:100A9000FF72C26003614361032303930123059343
:100AA000099303A902F0EEFF50B9002301930293CA
:100AB00001A9064803F03EFA28B90DB05DF804FB21
:100AC00006F048FAF1E706F045FAF6E7480A002092
:100AD0000000014000B58DB02022002104A806F0DE
:100AE00011FC00230193029311484FF080420260F1
:100AF000436083604FF6FF72C26003610323039378
:100B000001230593099303A902F0BCFF50B9002308
:100B10000193029301A9064803F00CFA28B90DB01D
:100B20005DF804FB06F016FAF1E706F013FAF6E7B3
:100B3000840A002000B58DB02022002104A806F010
:100B4000E1FB0023019302931148124A02604360C3
:100B500083604FF6FF72C260036103230393012396
:100B60000593099303A902F08DFF50B90023019367
:100B7000029301A9064803F0DDF928B90DB05DF82C
:100B800004FB06F0E7F9F1E706F0E4F9F6E700BF49
:100B90000C0A00200004004000B58DB02022002186
:100BA00004A806F0AFFB0023019302931148124AF8
:100BB0000260436083604FF6FF72C26003610323EB
:100BC000039301230593099303A902F05BFF50B936
:100BD00000230193029301A9064803F0ABF928B959
:100BE0000DB05DF804FB06F0B5F9F1E706F0B2F9D7
:100BF000F6E700BFD00900200008004000B58FB024
:100C0000002309930A930B930C930D9303684A4AAC
:100C100093420BD0B3F1804F2AD0484A93424AD036
:100C2000474A934267D00FB05DF804FB0021019161
:100C3000444B5A6C42F001025A645A6C02F00102B1
:100C40000192019A02911A6B42F001021A631B6B26
:100C500003F001030293029B4FF4407309930223B4
:100C60000A9301230D9309A9374804F0D9F8DAE76C
:100C70000021039103F50E331A6C42F001021A644D
:100C80001A6C02F001020392039A04911A6B42F06B
:100C900001021A631B6B03F001030493049B48F2E7
:100CA0000203099302230A9301230D9309A92648FD
:100CB00004F0B6F8B7E700210591224B1A6C42F018
:100CC00002021A641A6C02F002020592059A069159
:100CD0001A6B42F001021A631B6B03F001030693C7
:100CE000069BC023099302230A930D9309A9164872
:100CF00004F096F897E700210791124B1A6C42F026
:100D000004021A641A6C02F004020792079A08910E
:100D10001A6B42F002021A631B6B03F00203089382
:100D2000089BC023099302230A930D9309A907483E
:100D300004F076F877E700BF0000014000040040AF
:100D40000008004000380240000002400004024059
:100D50000268094B9A4200D0704782B00023019389
:100D6000064B5A6C42F002025A645B6C03F00203B9
:100D70000193019B02B0704700040140003802401B
:100D800000B587B000230193029303930493059366
:100D9000026803F1804303F582339A4202D007B020
:100DA0005DF804FB002300930B4B1A6B42F0040226
:100DB0001A631B6B03F004030093009B4FF47073E2
:100DC00001930223029303230493059301A903488B
:100DD00004F026F8E3E700BF0038024000080240B4
:100DE00000B591B000230E930F93079308930993D6
:100DF0000A930B930C930D93009301930293039327
:100E00000493059306933148314A026043602022DF
:100E1000826042F60312C2600361436102F0B8FDD2
:100E200000283DD100230E930F930EA9274803F00D
:100E300081F8002837D16023079300220892099295
:100E40000A920B920C920D9207A9204802F036FFED
:100E500060BB042207A91D4802F030FF48BB0822EE
:100E600007A91A4802F02AFF30BB0C2207A917482D
:100E700002F024FF18BB0023009301930293039315
:100E800004934FF400520592069369460F4803F00D
:100E9000C3F8B8B90D48FFF773FF11B05DF804FB54
:100EA00006F058F8BEE706F055F8C4E706F052F829
:100EB000CFE706F04FF8D2E706F04CF8D5E706F09A
:100EC00049F8D8E706F046F8E4E700BF94090020A7
:100ED0000004014008B50A480A4B03604FF4E133AF
:100EE000436000238360C36003610C22426183611D
:100EF000C36103F0F7FA00B908BD06F02BF8FBE771
:100F0000600B0020004C004008B50A480A4B036003
:100F10004FF4E133436000238360C36003610C221C
:100F200042618361C36103F0DDFA00B908BD06F0D8
:100F300011F8FBE7A00B00200044004008B50A4868
:100F40000A4B03604FF4E133436000238360C360C6
:100F500003610C2242618361C36103F0C3FA00B9EB
:100F600008BD05F0F7FFFBE7200B0020004800401C
:100F700030B58DB000230793089309930A930B9320
:100F800003684D4A934208D004464C4A93422AD003
:100F90004B4A93424CD00DB030BD00210191494BDA
:100FA0001A6C42F400221A641A6C02F400220192B4
:100FB000019A02911A6B42F004021A631B6B03F050
:100FC00004030293029B4FF44063079302230893A8
:100FD0000123099303230A9308230B9307A93A4893
:100FE00003F01EFFD7E700210391364B1A6C42F441
:100FF00000321A641A6C02F400320392039A0491CC
:101000001A6B42F008021A631B6B03F00803049387
:10101000049B60230793022308930123099303236E
:101020000A9307230B9307A9284803F0F9FEB2E7B8
:1010300000250595234B1A6C42F480221A641A6C21
:1010400002F480220592059A06951A6B42F0080276
:101050001A631B6B03F008030693069B4FF440735F
:101060000793022308930123099303230A93072379
:101070000B9307A9154803F0D3FE1548154B0360E1
:101080004FF0006343608560C5604FF48063036187
:10109000456185614FF48073C3614FF4803303620F
:1010A000456204F0CDF818B9094B63639C6372E79D
:1010B00005F050FFF8E700BF004C0040004400403E
:1010C000004800400038024000080240000C024086
:1010D000C00A002028600240034B0360034B0B60F2
:1010E0004FF4807313607047E4050020E401002092
:1010F00070B596B0164C0FAD26460FCE0FC596E8CC
:10110000070085E8070000210FA804F048FF114BF5
:10111000186008AD04F11C060FCE0FC596E8070055
:1011200085E80700002108A804F039FF0A4B186081
:1011300001AD38340FCC0FC594E8070085E80700EF
:10114000002101A804F02BFF044B186016B070BDFD
:10115000687C0008E00B0020381C00203C1C0020AC
:1011600000238B4221DA10B40BE000BF4FF0604245
:101170001268002AF9D04FF06042147001338B429C
:101180000FDAC45C4FF06042D2F8802E12F0010FEB
:10119000F4D04FF06042D2F8002E12F0010FEDD0E3
:1011A000E4E718465DF8044B70471846704708B5E9
:1011B00008461146FFF7D4FF08BD7047FEE7FEE77B
:1011C000FEE7FEE7704708B5012003F0C5FF08BD44
:1011D00008B5102003F0C0FF08BD000008B50248A4
:1011E00004F076F908BD00BFC00A002008B54FF42E
:1011F000005003F0B1FF08BD08B5024802F034FA10
:1012000008BD00BFE830002008B5024800F058FBD8
:1012100008BD00BF4845002000B583B00022009201
:101220000D4B596C41F480415964596C01F4804173
:10123000009100990192196C41F0805119641B6C66
:1012400003F080530193019B0F216FF0010004F024
:101250004BFA03B05DF804FB0038024010B588B0CB
:1012600000220146322004F03FFA322004F082FAD4
:1012700000240194144B1A6C42F008021A641B6C8F
:1012800003F008030193019B02A903A803F0AAFD40
:1012900003F088FD43000D48A0FB03239B0C013B9A
:1012A0000B480C4A026040F2E732C26043600461BE
:1012B000846002F0F7FA10B1012008B010BD0448B4
:1012C00002F080F9F9E700BF0038024083DE1B43DB
:1012D000E8300020000C004010B5094C00220949FC
:1012E000204604F0F1FF0849204605F004F80749BC
:1012F000204605F0D9FC204605F004F810BD00BFDB
:101300002431002004000020540000203800002078
:1013100012230B80004870472000002004230B801C
:10132000004870473400002008B50A4628B1054936
:10133000054805F06AFB034808BD0249024805F06C
:1013400064FBF8E748330020107D000810B5044C1A
:101350000A462146034805F058FB204610BD00BF51
:1013600048330020FC7C000808B50A4628B105492E
:10137000054805F04AFB034808BD0249024805F04C
:1013800044FBF8E748330020287D000808B50A46EA
:1013900028B10549054805F038FB034808BD024956
:1013A000024805F032FBF8E748330020E07C0008F3
:1013B00008B50A4628B10549054805F026FB03484B
:1013C00008BD0249024805F020FBF8E74833002039
:1013D000EC7C0008002070470020704710B5054CD9
:1013E0000146204605F06FFC204605F072FC002007
:1013F00010BD00BF2431002010B5064C0022064964
:10140000204605F058FC0549204605F05CFC00200C
:1014100010BD00BF24310020483D00204835002089
:101420000368B3F1A04F00D0704710B586B04FF4F9
:10143000C0530193022302930024039403230493D3
:101440000A23059301A90E4803F0EAFC0D4B5A6BE1
:1014500042F080025A6300945A6C42F480425A640B
:101460005B6C03F480430093009B224605214320DC
:1014700004F03AF9432004F07DF906B010BD00BF36
:10148000000002400038024008B500F56F71D0F846
:10149000EC0304F050FF08BD08B5C1EBC102930096
:1014A0000344D3F80422D0F8EC0304F071FF08BD24
:1014B00008B5C1EBC102930003445A6CD0F8EC03A9
:1014C00004F09BFF08BD08B5D0F8EC0305F01EF84A
:1014D00008BD10B50446C3684BB10121D4F8EC0334
:1014E00005F002F8D4F8EC0304F0DFFF10BD002192
:1014F000F4E7000010B50446D0F8EC0304F0F7FF61
:101500002268D2F8003E43F00103C2F8003E236A8D
:1015100023B1034A136943F00603136110BD00BFF2
:1015200000ED00E008B5D0F8EC0304F0E9FF08BDD9
:1015300008B5D0F8EC0304F0F9FF08BD08B5D0F801
:10154000EC0304F0F1FF08BD08B5D0F8EC0304F09B
:10155000EFFF08BD08B5D0F8EC0304F0EBFF08BDC1
:1015600003780BB10020704710B503461548C0F84A
:10157000EC33C3F820024FF0A04303600423436020
:101580000222C2600023036143618261C36103627E
:101590004362C362036300F0FDF880B9094C802107
:1015A000204600F0C1FD40220021204600F098FDB9
:1015B00080220121204600F093FD002010BD05F09F
:1015C000C9FCEBE74845002008B5D0F8200200F040
:1015D00061F918B1022803D0022008BD0020FCE701
:1015E0000120FAE710B51C4613462246D0F8200227
:1015F00000F05AFC18B1022803D0022010BD0020D0
:10160000FCE70120FAE708B5D0F8200200F080FCE2
:1016100018B1022803D0022008BD0020FCE70120F9
:10162000FAE708B5D0F8200200F0FCFC18B1022857
:1016300003D0022008BD0020FCE70120FAE708B52E
:10164000D0F8200200F021FD18B1022803D00220BA
:1016500008BD0020FCE70120FAE7D0F8203211F0A5
:10166000800F08D101F07F01C1EBC1018A00134452
:1016700093F8FA01704701F07F01C1EBC1018A00C4
:10168000134493F83A00704708B5D0F8200200F0F0
:10169000F9FB18B1022803D0022008BD0020FCE7A6
:1016A0000120FAE708B5D0F8200200F092FC18B14A
:1016B000022803D0022008BD0020FCE70120FAE741
:1016C00008B5D0F8200200F04EFC18B1022803D073
:1016D000022008BD0020FCE70120FAE708B5D0F899
:1016E000200200F06DFC08BD2DE9F04383B00746F1
:1016F0000D46D0F80080CA00521A93000344DE6CF5
:101700001A6DB61A1B6C9E4200D91E4606F10309DB
:101710004FEA990915E006F103094FEA9909EB0030
:101720005B1B9C003C44616C3B7C0093B3B2EAB20F
:10173000404601F0F5F8636C33446364236D334431
:101740002365414608EB451303F510639B699BB283
:101750004B4512D9EA00521B93003B441A6DDB6CD7
:101760009A420AD24BB19E1AC5EBC50293003B4484
:101770001B6C9E42CFD91E46CDE73EB90123AB403C
:10178000D1F8345825EA0305C1F83458002003B0D5
:10179000BDE8F083002877D0F0B58BB0044603682D
:1017A000B3F1A04F06D0394A934203D09421384870
:1017B00005F052FC032384F8B9332046FFF730FECE
:1017C000206800F0F9FC254655F8107B6E460FCDD9
:1017D0000FC60FCD0FC695E8030086E80300231D52
:1017E0000ECB384600F0A4FC0021206800F0EAFC93
:1017F000002210E0D100891A8B002344012183F8D4
:10180000391083F83820DA87002183F83B101964F7
:101810005964D96401320E2AECD9002218E0D100B3
:10182000891A8B002344002183F8F91183F8F821E9
:10183000DA8783F8FB11C3F80012C3F80412C3F867
:101840000C12236802F1400003EB8003596001325F
:101850000E2AE4D9254655F8107B6E460FCD0FC6EB
:101860000FCD0FC695E8030086E80300231D0ECBBD
:10187000384600F0BDFC012384F8B933206801F03C
:10188000FAF800200BB0F0BD0120704700000440C2
:10189000387D000890F8B833012B0ED010B50446FF
:1018A000012380F8B833006801F0D9F8206800F00F
:1018B0007DFC002084F8B80310BD022070470000B2
:1018C0002DE9F04704460568284601F00FF908B1F4
:1018D000BDE8F0870646206801F0D9F80028F7D067
:1018E000206801F0D4F810F0020F04D02268536988
:1018F00003F002035361206801F0C9F810F4002FCF
:1019000075D13746206801F0C2F810F4802F40F0FE
:10191000D280206801F0BBF80028C0F23E81206828
:1019200001F0B5F810F4006F0AD0D5F8083813F0BC
:10193000010F40F041812268536903F40063536151
:10194000206801F0A4F810F4805F40F0398120682D
:1019500001F09DF810F4005F40F08281206801F0F2
:1019600096F810F0100F14D02268936923F010033A
:1019700093612E6A06F00F08C6F34343022B00F072
:101980000382062B00F021822268936943F0100342
:101990009361206801F07BF810F0080F40F0298275
:1019A000206801F074F810F4801F40F02B8220684A
:1019B00001F06DF810F4001F40F02E82206801F055
:1019C00066F810F0804F40F03182206801F05FF837
:1019D00010F0040F3FF47CAF23685D6815F0040F2E
:1019E00040F02D82226853682B43536070E72068D3
:1019F00001F051F88046374621E0F900C91B8A0002
:101A00002244D2F800121B69C3F31203C91AC2F8A8
:101A10001012D2F80012D2F804320B44C2F8043289
:101A200028E019F0080F3DD119F0100F04D005EB94
:101A300047131022C3F8082B01374FEA5808B8F1B2
:101A4000000F3FF45FAF18F0010FF5D05FFA87FA8F
:101A50005146206801F02FF8814610F0010FE0D0C8
:101A600005EB47130122C3F8082B03F53063226905
:101A7000012AC2D051462046FFF70EFD2369012BF3
:101A8000CFD1002FCDD1C7EBC70293002344D3F8A9
:101A90000C32002BC5D104F56F720121206801F0D2
:101AA00045F8BEE72046FFF7EFFC05EB4713082299
:101AB000C3F8082BB8E7206800F0F5FF80463746EA
:101AC0002EE0FA00D21B93002344196C5A6C0A448E
:101AD0005A6446E019F0080F04D005EB47130822BA
:101AE000C3F8082919F0100F04D005EB4713102292
:101AF000C3F8082919F0400F04D005EB4713402222
:101B0000C3F8082919F0020F04D005EB471302228D
:101B1000C3F8082919F0800F3AD101374FEA580865
:101B2000B8F1000F3FF4F5AE18F0010FF5D05FFAF1
:101B300087FA5146206800F0C7FF814610F0010F78
:101B4000C8D0012202FA07F0D5F8343823EA00039E
:101B5000C5F8343805EB4713C3F8082923699342C5
:101B6000AFD051462046FFF7A3FC2369012BB1D12A
:101B7000002FAFD1C7EBC70293002344DB6C002BCF
:101B8000A8D104F56F720121206800F0CFFFA1E712
:101B900039462046FFF7A8FDBFE7D5F8043823F003
:101BA0000103C5F804382046FFF7BCFC22685369DE
:101BB00003F000435361B2E62046FFF79BFCBAE610
:101BC000A94605F50068D8F8043023F00103C8F8E9
:101BD00004301021206800F0B3FB07E009EB461346
:101BE000FF22C3F80829C3F8082B01366368B34203
:101BF000F4D84FF0FF33C8F81830D8F81C3043F051
:101C00000113C8F81C30236BEBB1D8F8843043F0D3
:101C10000B03C8F88430D8F8443043F00B03C8F8FD
:101C20004430D5F8003823F4FE63C5F8003804F5D5
:101C30006F72217C206800F079FF2268536903F4F9
:101C40008053536183E6D8F8143043F00B03C8F88F
:101C50001430D8F8103043F00B03C8F81030E0E728
:101C6000206800F047FF2268D36823F47053D360E4
:101C7000206800F092FB90B90023E3604FF40073FA
:101C800063612268D36843F41053D3602046FFF7A2
:101C900020FC2268536903F4005353615EE603237A
:101CA000E3604023636103F077F8674B0344674ABE
:101CB000934205D82268D36843F47053D360E5E7B4
:101CC000634B0344634A934205D82268D36843F4C4
:101CD0006053D360DAE7A0F57403A3F510535E4AAE
:101CE000934205D82268D36843F45053D360CDE7BC
:101CF000A0F18373A3F5E743584A934205D82268BD
:101D0000D36843F44053D360C0E7554B0344554A6E
:101D1000934205D82268D36843F43053D360B5E7C3
:101D2000514B0344514A934205D82268D36843F487
:101D30002053D360AAE74E4B03444E4A934205D842
:101D40002268D36843F41053D3609FE7A0F1B773C0
:101D5000A3F55853484A934205D82268D36843F400
:101D60000053D36092E7454B0344454A934205D85C
:101D70002268D36843F4E053D36087E72268D368CE
:101D800043F4C053D36081E747F6F0731E423FF43B
:101D9000FBAD36094FEAC80AAAEB08034FEA8309EC
:101DA000A144C6F30A02D9F80412284600F0CCFD7B
:101DB000C6F30A06D9F804323344C9F80432D9F814
:101DC00010321E44C9F81062DEE5082204F56F7176
:101DD000284600F0B9FDC6F30A164FEAC803A3EB84
:101DE00008018A002244D2F810321E44C2F8106260
:101DF000CAE52046FFF767FB2268536903F0080332
:101E00005361CDE5F9B22046FFF798FB226853698C
:101E100003F480135361CAE5F9B22046FFF788FB4B
:101E20002268536903F400135361C7E52046FFF7A6
:101E30008BFB2268536903F080435361C5E520465C
:101E4000FFF788FBCEE500BF405327FFFF340C00AF
:101E5000401E1BFF3F420F007F4F12001FD6130092
:101E600060B6E5FE5FE3160000D3CEFE3F771B00B1
:101E7000C05BB3FEBF9121001F753800E05459FECE
:101E8000DF9C410090F8B833012B0BD010B504460D
:101E9000012380F8B833006800F0D1FD002084F8F9
:101EA000B80310BD0220704770B54DB2002D22DB83
:101EB00001F07F06C6EBC606B40004F5FC740444CA
:101EC00001F07F012170ED0F6570A260E37005B134
:101ED000E180022B17D090F8B833012B16D00546BD
:101EE000012380F8B8332146006800F076FA00201C
:101EF00085F8B80370BD01F07F06C6EBC606B400D6
:101F000038340444DCE700232371E4E70220F1E7DE
:101F100010B54AB2002A1CDB01F07F04C4EBC404F4
:101F2000A30003F5FC73034401F07F011970D20F85
:101F30005A7090F8B823012A13D00446012280F881
:101F4000B8231946006800F091FA002084F8B8031D
:101F500010BD01F07F04C4EBC404A3003833034474
:101F6000E2E70220F4E770B501F07F06F500A91B57
:101F70008C0004F5FC740119AD1BAC000444C4F8DA
:101F80000422C4F80C320023C4F8103284F8F9316A
:101F900084F8F8610369012B06D066B1DAB20068F3
:101FA00000F0DCFA002070BDC6EBC605AC000444AE
:101FB000C4F80822F1E7DAB2006800F001FCF1E7AA
:101FC00001F00F01C1EBC1018B001844B0F8100201
:101FD000704770B501F07F06F500A91B8C003834FE
:101FE0000119AD1BAC0004446264E3640023236563
:101FF000012384F8393084F838600369012B06D056
:102000005EB1DAB2006800F0A9FA002070BDC6EB3C
:10201000C605AC000444A264F2E7DAB2006800F03E
:10202000CFFBF2E738B54AB2002A1DDBC1EBC10491
:10203000A30003F5FC73034401249C7001F07F04AA
:102040001C70D20F5A7090F8B823012A1BD0054695
:10205000012280F8B8231946006800F089FC5CB1C1
:10206000002085F8B80338BD01F07F04C4EBC40438
:10207000A30038330344DFE705F56F72297C286835
:1020800000F054FDECE70220EDE710B54AB2002A5B
:102090001CDBC1EBC104A30003F5FC730344002463
:1020A0009C7001F07F011970D20F5A7090F8B8231C
:1020B000012A13D00446012280F8B823194600688B
:1020C00000F088FC002084F8B80310BD01F07F0404
:1020D000C4EBC404A30038330344E0E70220F4E770
:1020E00030B40468606A29B10D46A36A00EB13405E
:1020F00000230CE040EA0240A06212E003F140013C
:1021000004EB8101496800EB11400133DBB2691E29
:102110008B42F3DB40EA024005F13F0104EB810111
:102120004860002030BC7047036859620020704747
:1021300084B010B5044603A880E80E00089B012B6C
:1021400020D1A36B23F48033A363E36823F48403D7
:1021500023F04003E360E36823F44013E3600F9B44
:10216000012B0AD0204600F005FD069B012B14D060
:102170000020BDE8104004B07047E36843F48013CA
:10218000E360EFE7E36843F04003E360204600F0DC
:10219000F1FC4FF48033A363E7E7A36843F0060341
:1021A000A360A36843F02003A360E1E7836843F0E2
:1021B0000103836000207047836823F0010383607C
:1021C0000020704708B5C36823F0C043C3600129ED
:1021D00009D019B9C36843F08043C360322003F0CB
:1021E0000BFB002008BDC36843F00053C360F5E754
:1021F00084B0F8B5044607A880E80E00119FBFB967
:10220000A36B43F40013A36325460023C4F8003EE8
:1022100004F50066D4F80038C4F800380C9B012B94
:1022200010D1099B4BB90021204600F0AFF80DE01A
:10223000A36B43F40023A363E6E70121204600F0EB
:10224000A5F803E00321204600F0A0F81021204665
:1022500000F076F8204600F087F8002333617361C0
:102260004FF0FF32B261F36108E04FF09040C2F8E6
:10227000000900220A61FF228A600133079999420E
:102280000BD905EB431202F51061D2F800090028C2
:10229000EBDB0020C2F80009EBE7002308E04FF079
:1022A000904CC2F800CB00220261FF228260013311
:1022B00099420DD905EB431202F53060D2F800CBFC
:1022C000BCF1000FEBDB4FF0000CC2F800CBEAE7EB
:1022D000336923F4807333610A9B012B1AD00022E7
:1022E000A2616FF0804262611BB9A36943F01003E1
:1022F000A361A269104B1343A3610D9B1BB1A3699A
:1023000043F00803A361012F0ED00020BDE8F84080
:1023100004B07047094A3263326B42F4803242F0B3
:1023200003023263326BDAE7A36943F0804343F080
:102330000403A361E9E700BF00383C80000180008E
:10234000890141F02001016100230133054A9342D4
:1023500005D8026912F0200FF7D100207047032042
:10236000704700BF400D03001023036100230133B9
:10237000054A934205D8026912F0100FF7D10020E8
:1023800070470320704700BF400D0300D0F80038AD
:102390001943C0F8001800207047D0F8083800F53D
:1023A000006013F0060F10D0836803F00603022BC1
:1023B0000DD0836803F00603062B0AD0836803F070
:1023C0000603042B07D0002070470020704703202D
:1023D0007047032070470220704730B44B78012BC0
:1023E00022D0D0F81C380D780122AA4043EA0243DB
:1023F000C0F81C380B7800EB4310D0F8003B13F406
:10240000004F0ED1D0F8003B8A68C2F30A02C978A7
:1024100042EA8142134343F0805343F40043C0F83F
:10242000003B002030BC7047D0F81C280D78AB4032
:102430009BB21343C0F81C380C7800EB4410D0F862
:10244000003913F4004FECD1D0F800398A68C2F398
:102450000A02C97842EA814242EA8452134343F0B5
:10246000805343F40043C0F80039DAE738B54B78BD
:10247000012B36D00B78044600EB4313D3F8002B26
:1024800022F40042C3F8002B0B7800EB43134FF00B
:102490000062C3F8002B0B7800EB43134FF080422F
:1024A000C3F8002B002201322B4B9A4252D80B78F2
:1024B00004EB431303F530639B6813F0100FF2D164
:1024C000D0F8043843F48063C0F80438D0F81C38DE
:1024D000097801228A4023EA0243C0F81C38002010
:1024E00038BD0B78044600EB4313D3F8002922F4DF
:1024F0000042C3F800290B7800EB43134FF0006251
:10250000C3F800290B7800EB43134FF08042C3F867
:10251000002900220132104B9A4219D80B7804EBA3
:10252000431303F510639B6813F0804FF2D10D46FF
:1025300004461021FFF704FFD4F81C282978012352
:102540008B409BB222EA0303C4F81C380020C7E783
:102550000320C5E70320C3E7400D030070B582B038
:102560004B78012B3ED00B7800EB4313D3F8104B84
:10257000E40CE404C3F8104B0B7800EB4313D3F8DE
:10258000104B24F0FF5424F4C014C3F8104B4B69D3
:10259000002B40F0D4800B7800EB4313D3F8104BA2
:1025A0008D68C5F312052C43C3F8104B0B7800EB74
:1025B0004313D3F8104B44F40024C3F8104B012A02
:1025C00000F0DC80CB78012B00F0DF800B7800EB93
:1025D0004310D0F8003B43F00443C0F8003B002018
:1025E00002B070BD4B696BBB0B7800EB4313D3F8A3
:1025F000104924F0FF5424F4C014C3F810490B7898
:1026000000EB4313D3F8104944F40024C3F81049F5
:102610000B7800EB4313D3F81049E40CE404C3F83F
:102620001049012A54D0CB78012B57D04B69002B8D
:1026300054D0D0F834380E780124B4402343C0F885
:1026400034384BE00B7800EB4313D3F81049E40C1B
:10265000E404C3F810490B7800EB4313D3F8104996
:1026600024F0FF5424F4C014C3F810490C7800EB94
:102670004414D4F810594B698E683344013BB3FBC2
:10268000F6F34E4E06EAC3432B43C4F810390B78D9
:1026900000EB4313D3F810494D69C5F312052C43E1
:1026A000C3F81049CB78012BBBD10B7800EB431357
:1026B000D3F8104924F0C044C3F810490B7800EB5C
:1026C0004313D3F8104944F00054C3F81049A8E765
:1026D0000B7800EB43130C69C3F81449CB78012B3A
:1026E00014D00B7800EB4313D3F8004944F00444B2
:1026F000C3F80049CB78012B7FF471AF14468B8A65
:102700000A78C968009400F00BF968E7D0F8083837
:1027100013F4807F09D10B7800EB4313D3F8004901
:1027200044F00054C3F80049DBE70B7800EB431397
:10273000D3F8004944F08054C3F80049D1E78C68CD
:102740002344013BB3FBF4F30C7800EB4414D4F8BE
:10275000105B1A4E06EAC3463543C4F8105B0C788A
:1027600000EB4414D4F8106B8D689BB205FB03F5A5
:10277000C5F312053543C4F8105B20E7CA680B782F
:1027800000EB4313C3F8142B1CE7D0F8083813F4FC
:10279000807F09D10B7800EB4313D3F8002B42F074
:1027A0000052C3F8002B11E70B7800EB4313D3F86A
:1027B000002B42F08052C3F8002B07E70000F81FFF
:1027C00030B44B78012B39D00B7800EB4313D3F89E
:1027D000104BE40CE404C3F8104B0B7800EB4313EC
:1027E000D3F8104B24F0FF5424F4C014C3F8104B5A
:1027F0004B690BB18B684B610B7800EB4313D3F83B
:10280000104B44F40024C3F8104B0B7800EB431337
:10281000D3F8104B8D68C5F312052C43C3F8104B49
:10282000012A76D00B7800EB4310D0F8003B43F040
:102830000443C0F8003B002030BC70474B699BBB91
:102840000B7800EB4313D3F8104924F0FF5424F421
:10285000C014C3F810490B7800EB4313D3F81049A8
:1028600044F40024C3F810490B7800EB4313D3F869
:102870001049E40CE404C3F810490B7800EB43134F
:10288000D3F8004944F00444C3F80049012A39D080
:102890004B69002BCFD0D0F83438097801228A4018
:1028A0001343C0F83438C6E70B7800EB4313D3F872
:1028B0001049E40CE404C3F810490B7800EB43130F
:1028C000D3F8104924F0FF5424F4C014C3F810497D
:1028D0004C698B689C4200D94B610B7800EB431329
:1028E000D3F8104944F40024C3F810490B7800EBE6
:1028F0004313D3F810494D69C5F312052C43C3F8AF
:102900001049BAE70B7800EB43100B69C0F8143993
:1029100091E7CA680B7800EB4313C3F8142B81E7E7
:1029200070B49DF80C4064B903339D0807E000EBD8
:10293000023303F5805351F8046B1E600134AC423E
:10294000F5D3002070BC70470332920800239342F5
:102950000CD210B400F58054246841F8044B0133C4
:102960009342F7D308465DF8044B7047084670471A
:102970004B78012B17D00B7800EB4313D3F8002BC7
:10298000002A05DBD3F8002B22F08042C3F8002B8D
:102990000B7800EB4310D0F8003B43F40013C0F871
:1029A000003B002070470B7800EB4313D3F800295D
:1029B000002A05DBD3F8002922F08042C3F8002961
:1029C0000B7800EB4310D0F8003943F40013C0F843
:1029D0000039E6E74B78012B0FD00B7800EB43135F
:1029E000D3F8002B22F40012C3F8002BCB78023B63
:1029F000DBB2012B19D9002070470B7800EB431391
:102A0000D3F8002922F40012C3F80029CB78023B46
:102A1000DBB2012BEFD80B7800EB4310D0F8003974
:102A200043F08053C0F80039E5E70B7800EB431022
:102A3000D0F8003B43F08053C0F8003BDBE7D0F810
:102A4000003823F4FE63C0F80038D0F800380901DC
:102A500001F4FE610B43C0F800380020704708B550
:102A6000D0F8043823F00203C0F80438032002F041
:102A7000C3FE002008BD08B5D0F8043843F00203B7
:102A8000C0F80438032002F0B7FE002008BD4269F8
:102A9000806910407047D0F8183800F50060C069B0
:102AA0001840000C7047D0F8183800F50060C06975
:102AB000184080B2704700EB4111D1F8082B00F5A7
:102AC000006040691040704710B4D0F81048D0F84A
:102AD0003438CB40DB01DBB2234300EB411000F57F
:102AE0001060806818405DF8044B7047406900F042
:102AF00001007047D0F8003923F4FF6323F0070387
:102B0000C0F8003900F500639A6802F00602042A52
:102B100005D05A6842F480725A6000207047D0F89D
:102B2000002942F00302C0F80029F2E710B40024A3
:102B3000C0F8104BD0F8104B44F40024C0F8104BF0
:102B4000D0F8104B44F01804C0F8104BD0F8104BDC
:102B500044F0C044C0F8104B012903D000205DF8B8
:102B6000044B7047C0F8142B4FF08023C0F8003B93
:102B7000F4E70000002301330C4A934211D80269A4
:102B8000002AF8DA036943F00103036100230133EB
:102B9000064A934207D8026912F0010FF7D10020CC
:102BA0007047032070470320704700BF400D0300AB
:102BB00010B504464E4B5A6822F440325A605A68A7
:102BC00041680A435A600268536823F48073536073
:102BD00002685368016943EA01235360026853683D
:102BE00023F0407353600268536881680B4353605D
:102BF0000268936823F40063936002689368C16875
:102C00000B439360826A3B4B9A4259D002689368A7
:102C100023F07063936002689368816A0B4393604A
:102C20000268936823F04053936002689368C16A16
:102C30000B4393602268936823F002039360226839
:102C40009368A16943EA41039360236A002B48D04B
:102C5000636A013B072B3ED82268536843F4006344
:102C600053602268536823F46043536021684B68C3
:102C7000626A013A43EA42334B602268D36A23F422
:102C80007003D3622168CB6AE269013A43EA0253D6
:102C9000CB622268936823F4007393602268936880
:102CA000216B43EA412393602268936823F4806395
:102CB000936022689368616943EA8123936010BD41
:102CC0000268936823F0706393600268936823F04E
:102CD00040539360AEE740F22761074804F0BCF927
:102CE000BAE72268536823F400635360C5E700BF66
:102CF000002301400100000FAC7D0008002800F017
:102D0000EB8010B504460368744A93420CD002F578
:102D10008072934208D002F58072934204D040F250
:102D20000B116F4804F098F9636843B1B3F5803F25
:102D300005D0B3F5003F02D0B3F5403F6FD1A36893
:102D400043B1B3F1807F05D0B3F1007F02D0B3F17E
:102D5000407F6AD12369012B6DD8A369012B70D8FC
:102D6000A36A7BB3B3F1807F2CD0B3F1007F29D06D
:102D7000B3F1407F26D0B3F1806F23D0B3F1A06FC1
:102D800020D0B3F1C06F1DD0B3F1E06F1AD0B3F112
:102D9000006F17D0B3F1106F14D0B3F1206F11D0C2
:102DA000B3F1306F0ED0B3F1406F0BD0B3F1506F71
:102DB00008D0B3F1606F05D0B3F1706F02D0494A0B
:102DC000934244D1E36813B1B3F5006F45D1E36991
:102DD000013B0F2B47D8236B012B4AD86369022B89
:102DE0004DD8236A012B50D8A26A3E4B9A420AD092
:102DF000E36A43B1B3F1805F05D0B3F1005F02D065
:102E0000B3F1405F47D1236C002B4AD0236C13F001
:102E1000100F4DD00120002384F83C3010BD4FF43A
:102E200086712F4804F018F989E740F20D112C48FB
:102E300004F012F98EE74FF48771294804F00CF979
:102E40008BE740F20F11264804F006F988E74FF4AB
:102E50008871234804F000F9B4E740F211112048CA
:102E600004F0FAF8B3E74FF489711D4804F0F4F860
:102E7000B1E740F213111A4804F0EEF8AEE74FF450
:102E80008A71174804F0E8F8ABE740F215111448CE
:102E900004F0E2F8A8E740F21911114804F0DCF858
:102EA000B1E7636484F83C302046FDF76FFCADE782
:102EB000236C23F4885323F0020343F002032364BA
:102EC0002046FFF775FE00206064236C23F00303A7
:102ED00043F0010323649EE7012070470020014076
:102EE000AC7D00080100000F30B583B005460C46EC
:102EF000002301930B68122B4ED86368013B0F2B04
:102F000050D8A368072B53D895F83C30012B00F01C
:102F1000C780012385F83C302368092B4ED92868E7
:102F2000C2689BB203EB43031E3B072101FA03F384
:102F300022EA0303C3602868C268A168238803EB00
:102F400043031E3B01FA03F31343C3606368062B7C
:102F50004AD82868426B03EB8303053B1F2101FA23
:102F600003F322EA030343632868426B636803EBBD
:102F70008303053B218801FA03F3134343632A6863
:102F8000484B9A4260D02A68464B9A4265D000204E
:102F900085F83C0003B030BD40F21551424804F0C2
:102FA0005BF8AAE740F216513F4804F055F8A8E74D
:102FB00040F217513C4804F04FF8A5E72868026931
:102FC0009BB203EB4303072101FA03F322EA030355
:102FD000036128680269A168238803EB430301FAAF
:102FE00003F313430361B1E70C2B16D82868026B77
:102FF00003EB8303233B1F2101FA03F322EA0303BC
:1030000003632868026B636803EB8303233B218817
:1030100001FA03F313430363B1E72868C26A03EBC1
:103020008303413B1F2101FA03F322EA0303C36236
:103030002868C26A636803EB8303413B218801FA75
:1030400003F31343C3629AE72368122B9BD1174AF9
:10305000536843F48003536095E72368103B012BCA
:1030600095D8124A536843F4000353602368102B29
:103070008DD10F4B1B6802F1467202F52E3202F21F
:103080008332A2FB03239B0C03EB83035A000192C0
:1030900002E0019B013B0193019B002BF9D176E7F4
:1030A000022077E700200140AC7D000800230140AA
:1030B0004C000020002800F0EB8010B504460368A7
:1030C000744A93420CD002F58062934208D002F514
:1030D0008062934204D04FF4B7716F4803F0BCFF95
:1030E0006368013B6D4A934267D8A36813B1B3F597
:1030F000804F68D1E36823F47F7323F00303002B30
:1031000067D12369B3F5804F02D0B3F5404F66D144
:103110006369012B69D8A36933F0FE036BD1E369BE
:103120000BB1402B6DD1236A0BB1802B6FD194F87A
:103130003D30002B71D0242384F83D302268136881
:1031400023F00103136001F02DFE554BA3FB002378
:103150009B0C226853606168524A914263D80133E4
:103160002268136263684F4A934266D85B00B0FBE3
:10317000F3F0C0F30B03032B00D804202368D861BD
:10318000E369216A22680B4313602369E1682268BE
:103190000B4393606369A16922680B43D360226883
:1031A000136843F00103136000202064202384F897
:1031B0003D30206384F83E0010BD40F26F11364868
:1031C00003F04AFF91E74FF4B871334803F044FF2E
:1031D00090E740F27111304803F03EFF91E74FF461
:1031E000B9712D4803F038FF92E740F273112A4875
:1031F00003F032FF8FE74FF4BA71274803F02CFF3A
:103200008DE740F27511244803F026FF8BE74FF459
:10321000BB71214803F020FF89E784F83C30204649
:10322000FDF720FB87E74FF4967202FB03F31E4A7B
:10323000A2FB03239B09013392E7A16889B903EB41
:103240004302B0FBF2F2C2F30B02B2FA82F252096D
:10325000E2B991B903EB4303B0FBF3F040F4004053
:103260008CE703EB830202EB8202B0FBF2F2C2F3C3
:103270000B02B2FA82F25209EAE703EB830303EB93
:103280008303B0FBF3F040F4404077E7012075E79B
:103290000120704700540040207E00087F1A06007D
:1032A00083DE1B43A0860100D34D6210002800F08E
:1032B000C08010B5044603685F4A93420CD0A2F563
:1032C0007842934208D002F58062934204D04FF4D2
:1032D00087715A4803F0C0FE636813B1B3F5827F6B
:1032E0006BD1A3682BB1B3F5806F02D0B3F5004F5B
:1032F00069D1E368B3F5006F01D0002B69D1A369F0
:10330000B3F5007F03D013B1B3F5802F67D1E36924
:103310006BB1082B0BD0102B09D0182B07D0202B0A
:1033200005D0282B03D0302B01D0382B5DD1236A58
:103330000BB1802B5FD1636A0BB1102B61D1636A33
:1033400033B923690BB1022B61D16369012B64D8B6
:103350000023A36294F85130002B64D0022384F838
:1033600051302268136823F0400313606368A26839
:103370001343E26813432269134362691343A2694A
:1033800002F400721343E2691343226A1343A16AF1
:1033900022680B431360638B03F00403616A2268A5
:1033A0000B4353602268D36923F40063D361002088
:1033B0006065012384F8513010BD40F20F111F48A1
:1033C00003F04AFE8DE74FF488711C4803F044FE79
:1033D0008FE740F21111194803F03EFE8FE74FF4DA
:1033E0008971164803F038FE91E740F21311134833
:1033F00003F032FE9BE74FF48A71104803F02CFE75
:1034000099E740F215110D4803F026FE97E74FF4B7
:103410008C710A4803F020FE97E740F21911074823
:1034200003F01AFE94E784F850302046FDF794FA32
:1034300094E70120704700BF00300140947E0008EF
:1034400070B4036A23F001030362036A426884696B
:1034500024F073040D6845EA040623F002048B6827
:1034600023430C4DA84202D00B4CA0420BD123F0B9
:103470000803CD682B4323F0040322F440724D6906
:1034800015438A692A43426086614A68426303623F
:1034900070BC704700000140000401402DE9F0417C
:1034A00004460E46036A23F480730362056A476884
:1034B000C36923F073080B6843EA080825F4007514
:1034C0008B6845EA03251F4B984203D003F58063C0
:1034D00098421CD1F3680BB1082B20D1B369B3F526
:1034E000007F00D00BBB7369B3F5807F00D013BBA6
:1034F00025F40065F36845EA032525F4806527F483
:103500004057736947EA0317B36947EA03176760CF
:10351000C4F81C807368E3632562BDE8F08141F262
:103520001731094803F098FDD8E741F218310648F1
:1035300003F092FDD7E741F21931034803F08CFD07
:10354000D6E700BF00000140087F00082DE9F041E8
:1035500004460F46036A23F480530362056AD0F8D9
:103560000480C66926F4E6460B6846EA032625F47D
:1035700000558B6845EA03350F4B984203D003F59D
:103580008063984209D17B69B3F5807F00D063B92D
:1035900028F480487B6948EA8318C4F80480E6610F
:1035A0007B6823642562BDE8F08141F25D31034808
:1035B00003F052FDECE700BF00000140087F000867
:1035C0007047000010B504460368234A934237D081
:1035D000B3F1804F34D0A2F57C42934230D002F553
:1035E000806293422CD002F58062934228D002F58B
:1035F0008062934224D002F58062934220D002F58B
:10360000704293421CD002F57052934218D002F5DA
:103610008062934214D002F58062934210D0A2F5EA
:10362000983293420CD002F58062934208D002F5A2
:103630008062934204D04FF4B171084803F00CFD4E
:103640002268D36843F00103D3602268136843F013
:1036500001031360002010BD00000140087F000836
:10366000704770477047704710B5044603681A6981
:1036700012F0020F11D0DA6812F0020F0DD06FF0C5
:1036800002021A610123037603689B6913F0030F9A
:1036900070D0FFF7E6FF0023237623681A6912F043
:1036A000040F12D0DA6812F0040F0ED06FF004028B
:1036B0001A610223237623689B6913F4407F5FD04D
:1036C0002046FFF7CEFF0023237623681A6912F005
:1036D000080F12D0DA6812F0080F0ED06FF008024F
:1036E0001A61042323762368DB6913F0030F4ED09D
:1036F0002046FFF7B6FF0023237623681A6912F0ED
:10370000100F12D0DA6812F0100F0ED06FF0100206
:103710001A61082323762368DB6913F4407F3DD0C8
:103720002046FFF79EFF0023237623681A6912F0D4
:10373000010F03D0DA6812F0010F36D123681A693D
:1037400012F0800F03D0DA6812F0800F34D12368B2
:103750001A6912F0400F03D0DA6812F0400F32D12C
:1037600023681A6912F0200F03D0DA6812F0200FD4
:1037700030D110BDFFF774FF2046FFF773FF8AE7D3
:103780002046FFF76DFF2046FFF76CFF9BE72046C2
:10379000FFF766FF2046FFF765FFACE72046FFF71F
:1037A0005FFF2046FFF75EFFBDE76FF001021A6181
:1037B000204603F0C1FBC1E76FF080021A6120468A
:1037C00000F0BFFCC3E76FF040021A612046FFF72C
:1037D0004AFFC5E76FF020021A61204600F0B0FCF6
:1037E000C7E7000003682E4A904212D0B0F1804F24
:1037F0000FD0A2F57C4290420BD002F5806290423D
:1038000007D002F58062904203D002F578429042E0
:1038100003D123F070034A681343214A90422AD00F
:10382000B0F1804F27D0A2F57C42904223D002F520
:10383000806290421FD002F5806290421BD002F558
:103840007842904217D002F57052904213D002F5A0
:10385000806290420FD002F5806290420BD0A2F5B8
:103860009832904207D002F58062904203D002F570
:103870008062904203D123F44073CA68134303600B
:103880008B68C3620B688362054B984203D003F5D3
:103890008063984201D10B69036301234361704740
:1038A0000000014000286DD010B504460368364A78
:1038B000934236D0B3F1804F33D0A2F57C4293428D
:1038C0002FD002F5806293422BD002F580629342A2
:1038D00027D002F58062934223D002F580629342A2
:1038E0001FD002F5704293421BD002F570529342F2
:1038F00017D002F58062934213D002F580629342A2
:103900000FD0A2F5983293420BD002F58062934219
:1039100007D002F58062934203D0D7211B4803F001
:103920009BFBA3683BB1102B05D0202B03D0402B71
:1039300001D0602B16D123692BB1B3F5807F02D063
:10394000B3F5007F13D194F83930ABB1022384F87A
:103950003930211D2068FFF745FF012384F83930F5
:10396000002010BDD821094803F076FBE3E7D921F8
:10397000064803F071FBE6E784F838302046FFF78D
:103980001FFEE3E70120704700000140087F0008A8
:10399000002870D010B504460368384A934237D0E7
:1039A000B3F1804F34D0A2F57C42934230D002F57F
:1039B000806293422CD002F58062934228D002F5B7
:1039C0008062934224D002F58062934220D002F5B7
:1039D000704293421CD002F57052934218D002F507
:1039E0008062934214D002F58062934210D0A2F517
:1039F000983293420CD002F58062934208D002F5CF
:103A00008062934204D040F2F1311D4803F024FB60
:103A1000A3683BB1102B05D0202B03D0402B01D045
:103A2000602B16D123692BB1B3F5807F02D0B3F59B
:103A3000007F14D194F83930BBB1022384F83930B7
:103A4000211D2068FFF7CEFE012384F839300020C5
:103A500010BD40F2F2310A4803F0FEFAE2E740F20C
:103A6000F331074803F0F8FAE4E784F838302046E9
:103A7000FDF76EF9E1E70120704700BF000001404B
:103A8000087F0008002800F0D180F8B505460C46F4
:103A90000368674A93421FD0B3F1804F1CD0A2F550
:103AA0007C42934218D002F58062934214D002F512
:103AB0008062934210D002F5784293420CD002F516
:103AC0007052934208D0A2F59432934204D040F64B
:103AD000FA01584803F0C0FA2368013B022B69D869
:103AE000A368013B022B6BD8A369013B022B6DD865
:103AF00063681BB1022B01D00A2B6DD163691BB126
:103B0000022B01D00A2B6DD1E3682BB1042B03D01B
:103B1000082B01D00C2B6BD1E3692BB1042B03D004
:103B2000082B01D00C2B69D123690F2B6CD8236A89
:103B30000F2B6FD895F83930002B71D0022385F800
:103B40003930294651F8042B936823F0070393601A
:103B50002868FFF747FE29688A688E690F6A20681F
:103B6000104326F4407626F00306A268A36942EAD1
:103B70000323334323F47C4323F0FC03E668E26928
:103B800046EA02261E43226A1303226943EA02130D
:103B9000334327F0AA076268646942EA04123A4391
:103BA000886029688B612B681A62012385F8393097
:103BB0000020F8BD40F6FB011E4803F04DFA8FE7E8
:103BC00040F6FC011B4803F047FA8DE740F6FD0183
:103BD000184803F041FA8BE740F6FE01154803F060
:103BE0003BFA8BE740F6FF01124803F035FA8BE70A
:103BF0004FF410610F4803F02FFA8DE740F60111E2
:103C00000C4803F029FA8FE740F60211094803F047
:103C100023FA8CE740F60311064803F01DFA89E702
:103C200085F838302846FCF7E9FF87E70120704720
:103C300000000140087F00082DE9F04104460E46CF
:103C4000036A23F010030362056AD0F804808769D1
:103C500027F4E6470B6847EA032725F020058B6821
:103C600045EA0315134B984203D003F5806398424D
:103C700012D1F3680BB1082B16D125F08005F3683B
:103C800045EA031525F0400528F44068736948EAC1
:103C90008308B36948EA8308C4F80480A76173689D
:103CA000A3632562BDE8F08141F20521024803F0DB
:103CB000D3F9E2E700000140087F000890F83830AF
:103CC000012B00F0318170B516460D4604460123E4
:103CD00080F838303AB1042A05D0082A03D00C2ADB
:103CE00001D0182A20D12B68602B01D0702B21D154
:103CF000AB680BB1022B23D12B690BB1042B25D15F
:103D0000022384F839300C2E6DD8DFE816F0250038
:103D10006C006C006C0073006C006C006C00AC00FC
:103D20006C006C006C00DC0040F648417F4803F0FA
:103D300093F9D8E740F649417C4803F08DF9D7E77D
:103D400040F64A41794803F087F9D5E740F64B4100
:103D5000764803F081F9D3E72368754A93422FD060
:103D6000B3F1804F2CD0A2F57C42934228D002F5CB
:103D70008062934224D002F58062934220D002F503
:103D8000784293421CD002F57052934218D002F54B
:103D90008062934214D002F58062934210D0A2F563
:103DA000983293420CD002F58062934208D002F51B
:103DB0008062934204D040F653415C4803F04CF9D2
:103DC00029462068FFF73CFB2268936943F008030B
:103DD00093612268936923F00403936122689369D5
:103DE00029690B439361012384F83930002084F85A
:103DF000380070BD23684E4A93421FD0B3F1804F04
:103E00001CD0A2F57C42934218D002F58062934206
:103E100014D002F58062934210D002F578429342AA
:103E20000CD002F57052934208D0A2F5943293421E
:103E300004D040F662413D4803F00EF9294620685F
:103E4000FFF7FAFE2268936943F4006393612268E6
:103E5000936923F48063936122689369296943EA33
:103E600001239361BFE72368314A934217D0B3F12E
:103E7000804F14D0A2F57C42934210D002F58062AC
:103E800093420CD002F58062934208D002F578424A
:103E9000934204D040F67141244803F0DDF82946EE
:103EA0002068FFF7FBFA2268D36943F00803D36167
:103EB0002268D36923F00403D3612268D369296996
:103EC0000B43D3618FE72368194A934217D0B3F1AC
:103ED000804F14D0A2F57C42934210D002F580624C
:103EE00093420CD002F58062934208D002F57842EA
:103EF000934204D04FF448610C4803F0ADF82946D2
:103F00002068FFF723FB2268D36943F40063D36181
:103F10002268D36923F48063D3612268D369296955
:103F200043EA0123D3615EE702207047087F00085F
:103F30000000014038B504460D460368344A9342F8
:103F40001FD0B3F1804F1CD0A2F57C42934218D011
:103F500002F58062934214D002F58062934210D041
:103F600002F5806293420CD002F58062934208D041
:103F700002F57042934204D040F24A61254803F0B2
:103F80006BF82B686BB1102B0BD0202B09D0302B8A
:103F900007D0402B05D0502B03D0602B01D0702BC5
:103FA00027D16B68802B00D04BBB94F83830012BA5
:103FB0002BD0012284F83820022384F8393021687C
:103FC0004B6823F070034B6021684B6828680343FB
:103FD0004B6021688B6823F080038B6021688B68BD
:103FE000686803438B6084F83920002084F8380027
:103FF00038BD40F24B61074803F02EF8D1E740F29C
:104000004C61044803F028F8CFE70220F0E700BF36
:10401000000001407C7F000838B504460D46036867
:10402000454A934208D002F58062934204D040F2A0
:104030007261424803F010F82B68B3F5006F01D0AD
:10404000002B4DD16B68B3F5806F01D0002B4DD1A3
:10405000AB6843B1B3F5807F05D0B3F5007F02D0E4
:10406000B3F5407F48D1EB68FF2B4BD82B69B3F5F4
:10407000805F01D0002B4BD16B6913B1B3F5005FAA
:104080004CD1AB69B3F5804F01D0002B4CD194F8E3
:104090003830012B4ED0012384F83830EB6823F4FC
:1040A0004073AA68134323F480636A68134323F4BC
:1040B00000632A68134323F480532A69134323F4CB
:1040C00000536A69134323F48043AA69134323F41A
:1040D0000043134322685364002084F8380038BD3D
:1040E00040F27361154802F0B7FFABE740F274612C
:1040F000124802F0B1FFABE740F275610F4802F0E1
:10410000ABFFB0E740F276610C4802F0A5FFADE7E7
:1041100040F27761094802F09FFFADE74FF4CF61AD
:10412000064802F099FFACE740F27961034802F0DB
:1041300093FFACE70220D2E7000001407C7F00083B
:10414000704770472DE9F84304464268B44B9A42E1
:1041500000F29C80E3681BB1B3F5005F40F09C80E7
:10416000236933B1B3F5806F03D0B3F5C06F40F06E
:10417000998063694FF6F372134200D123B940F678
:104180008811A84802F068FF21680A6922F44052A9
:10419000E36813430B612168CA6822F4164222F0D7
:1041A0000C02A3682069034360690343E069034389
:1041B0001343CB6021684A6922F44072A369134318
:1041C0004B61E369B3F5004F72D02368964A93427E
:1041D00000F02E8102F58062934200F0298100F008
:1041E000E1FD00EB800000EB80006568AD00B0FBF6
:1041F000F5F58E4FA7FB05356D092E0100F0D2FDB8
:1042000000EB800000EB80006568AD00B0FBF5F9C5
:1042100000F0C8FD00EB800000EB80006568AD0099
:10422000B0FBF5F5A7FB05356D094FF0640808FBF9
:1042300015952D013235A7FB05356D0905F0F00503
:10424000354400F0AFFD00EB800000EB80006668B5
:10425000B600B0FBF6F600F0A5FD00EB800000EB29
:10426000800063689B00B0FBF3F0A7FB00304009BF
:1042700008FB10684FEA081808F13208A7FB083756
:10428000C7F3431723682F449F6027E140F6851149
:10429000644802F0E1FE5DE740F68611614802F0F5
:1042A000DBFE5DE740F687115E4802F0D5FE60E771
:1042B00023685D4A93425BD002F58062934257D0F7
:1042C00000F070FD00EB800000EB800065686D0081
:1042D000B0FBF5F5554FA7FB05356D092E0100F034
:1042E00061FD00EB800000EB800065686D00B0FBB5
:1042F000F5F900F057FD00EB800000EB80006568E9
:104300006D00B0FBF5F5A7FB05356D094FF06408AE
:1043100008FB1595ED003235A7FB05356D096D00DD
:1043200005F4F875354400F03DFD00EB800000EB2E
:10433000800066687600B0FBF6F600F033FD00EB17
:10434000800000EB800063685B00B0FBF3F3A7FB29
:1043500003235B0908FB13684FEAC80808F1320819
:10436000A7FB0837C7F3421723682F449F60B5E0C7
:1043700000F028FD00EB800000EB800065686D0018
:10438000B0FBF5F5294FA7FB05356D092E0100F0AF
:1043900019FD00EB800000EB800065686D00B0FB4C
:1043A000F5F900F00FFD00EB800000EB8000656880
:1043B0006D00B0FBF5F5A7FB05356D094FF06408FE
:1043C00008FB1595ED003235A7FB05356D096D002D
:1043D00005F4F875354400F0F5FC00EB800000EBC7
:1043E000800066687600B0FBF6F600F0EBFC00EBB0
:1043F000800000EB800063685B00B0FBF3F3A7FB79
:1044000003235B0908FB13684FEAC80808F1320868
:10441000A7FB0837C7F3421723682F449F605DE06E
:10442000A037A000F07F0008001001401F85EB516D
:1044300000F0C8FC00EB800000EB80006568AD0078
:10444000B0FBF5F5264FA7FB05356D092E0100F0F1
:10445000B9FC00EB800000EB80006568AD00B0FBAC
:10446000F5F900F0AFFC00EB800000EB8000656820
:10447000AD00B0FBF5F5A7FB05356D094FF06408FD
:1044800008FB15952D013235A7FB05356D0905F0A3
:10449000F005354400F096FC00EB800000EB800056
:1044A0006668B600B0FBF6F600F08CFC00EB80000E
:1044B00000EB800063689B00B0FBF3F0A7FB0030CB
:1044C000400908FB10684FEA081808F13208A7FBFA
:1044D0000837C7F3431723682F449F60BDE8F8836C
:1044E0001F85EB51002800F08B8010B504468369CE
:1044F000002B55D00368434A934210D0A2F54C429A
:1045000093420CD002F58062934208D002F54C42EF
:10451000934204D04FF480713B4802F09DFDA369A3
:1045200043B1B3F5807F05D0B3F5007F02D0B3F57A
:10453000407F2FD1A36813B1B3F5805F4ED1E369FB
:1045400013B1B3F5004F4FD194F83930002B51D04F
:10455000242384F839302268D36823F40053D360CD
:104560002046FFF7EFFD2268136923F4904313619F
:104570002268536923F02A0353612268D36843F405
:104580000053D3600020E063202384F8393084F89E
:104590003A3010BD40F201111B4802F05DFDC9E741
:1045A0000368184A9342C5D0A2F54C429342C1D049
:1045B00002F580629342BDD002F580629342B9D089
:1045C00002F580629342B5D002F544429342B1D0E5
:1045D00040F205110C4802F03FFDABE740F2071135
:1045E000094802F039FDAAE74FF48471064802F049
:1045F00033FDA9E784F838302046FCF7B9FCA7E77B
:104600000120704700100140F07F0008002800F0F2
:104610003C8270B582B0044603680F2B39D82368FA
:1046200013F0010F4DD063682BB1B3F5803F02D07A
:10463000B3F5A02F32D1A54B9B6803F00C03042BDC
:1046400036D0A24B9B6803F00C03082B2BD0636879
:10465000B3F5803F5FD0B3F5A02F62D09B4B1A68B3
:1046600022F480321A601A6822F480221A60636889
:10467000002B60D001F0BAF80546944B1B6813F488
:10468000003F1ED101F0B2F8401B6428F5D9032089
:1046900000E2F8218E4802F0DFFCC0E7FD218C48E3
:1046A00002F0DAFCC7E7894B5B6813F4800FCED0C9
:1046B000864B1B6813F4003F03D06368002B00F0A7
:1046C000E681236813F0020F67D0E368012B41D81D
:1046D00023691F2B44D87D4B9B6813F00C0F4AD0E5
:1046E0007A4B9B6803F00C03082B3FD0E368002B48
:1046F00077D0784B01221A6001F078F80546734BA9
:104700001B6813F0020F63D101F070F8401B022800
:10471000F5D90320BEE16D4A136843F4803313607A
:10472000A5E76A4B1A6842F480221A601A6842F4BC
:1047300080321A609BE701F059F80546634B1B680D
:1047400013F4003FBDD001F051F8401B6428F5D9A7
:1047500003209FE140F22F115D4802F07DFCB7E796
:104760004FF498715A4802F077FCB4E7574B5B68F6
:1047700013F4800FBAD1554B1B6813F0020F04D00D
:10478000E368012B01D0012084E1504A136823F033
:10479000F803216943EAC1031360236813F0080F8B
:1047A00049D06369012B2ED8636993B34A4B012228
:1047B0001A6001F01BF80546444B5B6F13F0020FC3
:1047C00039D101F013F8401B0228F5D9032061E12B
:1047D0003E4A136823F0F803216943EAC1031360DA
:1047E000DBE73C4B00221A6001F000F80546374B2E
:1047F0001B6813F0020FD0D000F0F8FF401B022816
:10480000F5D9032046E14FF4B871314802F024FC99
:10481000CAE7314B00221A6000F0E8FF05462B4B37
:104820005B6F13F0020F06D000F0E0FF401B022880
:10483000F5D903202EE1236813F0040F00F08780E0
:10484000A368012B01D9052B38D1204B1B6C13F029
:10485000805F39D1002301931C4B1A6C42F08052C7
:104860001A641B6C03F080530193019B01251B4BC1
:104870001B6813F4807F33D0A368012B44D0052B31
:1048800048D0124B1A6F22F001021A671A6F22F0F9
:1048900004021A67A368002B46D000F0A7FF064663
:1048A0000A4B1B6F13F0020F4FD100F09FFF801BCC
:1048B00041F288339842F3D90320EBE04FF4CE71F4
:1048C000034802F0C9FBC0E70025D0E700380240EA
:1048D0006480000800004742800E4742007000409C
:1048E0006E4A136843F48073136000F07FFF06463E
:1048F0006A4B1B6813F4807FBED100F077FF801BEA
:104900000228F5D90320C5E0654A136F43F001037F
:104910001367BFE7624B1A6F42F004021A671A6FFF
:1049200042F001021A67B5E700F060FF06465C4BF3
:104930001B6F13F0020F08D000F058FF801B41F2EC
:1049400088339842F3D90320A4E0002D3BD1A3691A
:10495000022B3ED8A369002B00F09B80504A92683E
:1049600002F00C02082A00F09780022B79D1E3694B
:1049700013B1B3F5800F32D1236A3F2B35D8636A68
:10498000323BB3F5BF7F36D8A36A022B05D0042B88
:1049900003D0062B01D0082B33D1E36A023B0D2B49
:1049A00035D8404B00221A6000F020FF05463C4BF2
:1049B0001B6813F0007F30D000F018FF401B022866
:1049C000F5D9032066E0364A136C23F08053136454
:1049D000BDE740F2DF11344802F03EFBBAE74FF486
:1049E000F471314802F038FBC6E740F2E9112E4875
:1049F00002F032FBC3E74FF4F5712B4802F02CFBB9
:104A0000C2E740F2EB11284802F026FBC5E74FF45D
:104A1000F671254802F020FBC3E7E369226A1343DD
:104A2000626A43EA8213A26A5208013A43EA0243E5
:104A3000E26A43EA02631A4A53601A4B01221A607F
:104A400000F0D4FE0446164B1B6813F0007F06D11D
:104A500000F0CCFE001B0228F5D903201AE000204C
:104A600018E0104B00221A6000F0C0FE04460C4B08
:104A70001B6813F0007F06D000F0B8FE001B022870
:104A8000F5D9032006E0002004E001207047012052
:104A900000E0002002B070BD0120FBE70070004084
:104AA000003802406000474264800008324B9B6837
:104AB00003F00C03042B5CD0082B01D02F48704767
:104AC0002DE9F04B2C4B5A6802F03F025B6813F45F
:104AD000800F2BD0284B5B68C3F388131E4600273A
:104AE0005C010025E41A65EB0705A90141EA946120
:104AF000A001001B61EB0501CB0043EA5073C40029
:104B0000A01943EB07014B0243EAD053440220466D
:104B100019460023FBF766FB174B5B68C3F30143A1
:104B200001335B00B0FBF3F0BDE8F08B124B5B6828
:104B3000C3F388131E4600275C010025E41A65EBC9
:104B40000705A90141EA9461A001001B61EB050181
:104B5000CB0043EA5073C400A01943EB07018B025A
:104B600043EA90538402204619460023FBF73AFBA0
:104B7000D2E70348704700BF003802400024F40029
:104B800000127A00002800F0F98070B504460D4646
:104B90000368013B0E2B11D8072D15D8794B1B68E4
:104BA00003F00F03AB4215D2EBB2764A13701368D1
:104BB00003F00F03AB420DD0012070BD4FF4147110
:104BC000714802F049FAE7E740F251216E4802F0DD
:104BD00043FAE3E7236813F0020F29D013F0040F20
:104BE00004D06A4A936843F4E0539360236813F057
:104BF000080F04D0654A936843F460439360A36848
:104C00007BB1802B0DD0902B0BD0A02B09D0B02BDB
:104C100007D0C02B05D0D02B03D0E02B01D0F02B38
:104C200033D15A4A936823F0F003A1680B43936091
:104C3000236813F0010F42D06368032B2BD86368FD
:104C4000012B2ED09A1E012A32D9504A126812F036
:104C5000020F00F095804D498A6822F00302134349
:104C60008B6000F0C3FD0646484B9B6803F00C03C5
:104C70006268B3EB820F22D000F0B8FD801B41F2D6
:104C800088339842F0D9032097E74FF41D713E48CE
:104C900002F0E2F9C5E740F27B213B4802F0DCF983
:104CA000CDE73A4A126812F4003FD4D1012084E7DC
:104CB000364A126812F0007FCDD101207DE7314BDA
:104CC0001B6803F00F03AB4209D9EAB22D4B1A70EF
:104CD0001B6803F00F03AB4201D001206DE723688E
:104CE00013F0040F14D0E3685BB1B3F5805F08D014
:104CF000B3F5A05F05D0B3F5C05F02D0B3F5E05FB8
:104D000030D1224A936823F4E053E1680B43936067
:104D1000236813F0080F15D023695BB1B3F5805FEA
:104D200008D0B3F5A05F05D0B3F5C05F02D0B3F5EE
:104D3000E05F1DD1154A936823F46043216943EA7B
:104D4000C1039360FFF7B2FE104B9B68C3F30313DC
:104D50000F4AD35CD8400F4B18600020FCF77EFA56
:104D600000202AE740F2B921074802F075F9C8E7A8
:104D70004FF43071044802F06FF9DBE7012070470F
:104D800001201AE7003C024064800008003802401D
:104D90003C8200084C000020014B1868704700BF9F
:104DA0004C00002008B5FFF7F7FF044B9B68C3F3E6
:104DB0008223034AD35CD84008BD00BF00380240BC
:104DC0004C82000808B5FFF7E7FF044B9B68C3F36C
:104DD0004233034AD35CD84008BD00BF00380240CC
:104DE0004C8200080F2303600B4B9A6802F0030209
:104DF00042609A6802F0F00282609A6802F4E0521F
:104E0000C2609B68DB0803F4E0530361034B1B683B
:104E100003F00F030B60704700380240003C024073
:104E20002DE9F04782B080460E46B64B984223D01B
:104E300003F5806398421FD003F5806398421BD02E
:104E400003F58063984217D003F58063984213D02E
:104E500003F5806398420FD003F5806398420BD02E
:104E600003F58063984207D003F58063984203D02E
:104E7000C321A54802F0F0F833689AB212B11B0CB6
:104E80001B041BB1C421A04802F0E6F87368012B93
:104E90001ED9112B1CD0022B1AD0122B18D09B4AD2
:104EA000934215D002F58012934211D002F5801280
:104EB00093420DD0A2F5F812934209D002F5801268
:104EC000934205D002F58012934201D0032B04D106
:104ED000B368022B06D8002445E0C5218A4802F0B9
:104EE000BBF8F5E7C621884802F0B6F8F3E7EA21F7
:104EF000854802F0B1F896E0072300E000238B40DC
:104F000003430232824941F82230824B1A68FB4344
:104F100003EA0201706810F4803F01D047EA020101
:104F20007C4A1160526803EA0201706810F4003F85
:104F300001D047EA0201774A5160926803EA020110
:104F4000706810F4801F01D047EA0201714A916035
:104F5000D2681340716811F4001F01D047EA0203C0
:104F60006C4AD36001340F2C00F2C9800125A540A2
:104F700037682F40BD42F5D17368022B01D0122B48
:104F800031D13369FBB1092B1DD0012B1BD0022B72
:104F900019D0032B17D0042B15D0052B13D0062BBB
:104FA00011D0072B0FD0082B0DD00A2B0BD00B2BB9
:104FB00009D00C2B07D00D2B05D00F2B03D0D721F8
:104FC000514802F049F8E208083258F8220004F08B
:104FD000070399000F238B4020EA030033698B40BD
:104FE000034348F82230D8F800204FEA440A4FF033
:104FF000030909FA0AF96FEA090909EA0202736862
:1050000003F0030303FA0AF31343C8F8003073688C
:105010005A1E012A03D9112B01D0122B18D1F36883
:10502000032B3FF664AFD8F8082009EA0202F368C0
:1050300003FA0AF31343C8F80830D8F8042022EA28
:1050400005027368C3F30015A5401543C8F8045062
:10505000D8F80C3009EA0309B36803FA0AF343EA03
:105060000903C8F80C30736813F0805F3FF47AAF1F
:1050700000230193284B5A6C42F480425A645B6CC3
:1050800003F480430193019BA208911C204B53F829
:10509000210004F0030399000F238B4020EA030052
:1050A000184B98453FF42AAF03F5806398451AD012
:1050B00003F58063984518D003F58063984516D0B2
:1050C00003F58063984514D003F58063984512D0AA
:1050D00003F58063984510D003F5806398453FF44D
:1050E0000BAF08230BE7012309E7022307E703239C
:1050F00005E7042303E7052301E70623FFE602B0E3
:10510000BDE8F08700000240D880000800001110C0
:1051100000380140003C01400038024070B50646AE
:1051200015460C4629B1012D09D875B92404B4617E
:1051300070BD40F2AF11064801F08EFFF3E74FF467
:10514000D871034801F088FFEFE7B461F0E700BFD2
:10515000D88000087047000008B5054B5B69034222
:1051600000D108BD024B5861FFF7F4FFF9E700BF1B
:10517000003C01400268D3B2103B0B49A1FB031372
:105180001B090A49C95CC165032B06D822F47F724A
:1051900022F003028265806D704722F47F7222F054
:1051A000030204328265F6E7ABAAAAAAC08100080E
:1051B000836A826992B9012B0AD01BB1022B01D0FC
:1051C00000207047C36A13F0807F2CD10020704705
:1051D000C36AB3F1C07F28D000207047B2F5005FEA
:1051E00005D0022B29D9032B15D000207047032BA3
:1051F00003D8DFE803F01C041C0A00207047C36AD0
:1052000013F0807F15D100207047C36AB3F1C07FCF
:1052100011D000207047C36A13F0807F01D00120B5
:10522000704700207047012070470120704701201F
:10523000704701207047012070470120704700002F
:1052400070B5044600F0D2FA002C00F03881054613
:1052500023689C4A934231D0183293422ED01832A0
:1052600093422BD01832934228D01832934225D043
:105270001832934222D0183293421FD018329342F0
:105280001CD002F55672934218D01832934215D0B2
:105290001832934212D0183293420FD018329342F0
:1052A0000CD01832934209D01832934206D01832EB
:1052B000934203D0C821844801F0CEFE6368A3B1B5
:1052C000B3F1007F11D0B3F1806F0ED0B3F1C06F96
:1052D0000BD0B3F1006F08D0B3F1206F05D0B3F15C
:1052E000406F02D0B3F1606F6DD1A3681BB1402B4A
:1052F00001D0802B6CD1E368B3F5007F01D0002B87
:105300006BD12369B3F5806F01D0002B6AD163693B
:105310002BB1B3F5006F02D0B3F5805F67D1A369FD
:105320002BB1B3F5005F02D0B3F5804F64D1E369D0
:1053300023B1B3F5807F01D0202B62D1236A43B122
:10534000B3F5803F05D0B3F5003F02D0B3F5403F41
:105350005CD1636A0BB1042B5DD1636AC3B1A36AEC
:10536000032B5DD8E36A43B1B3F5000F05D0B3F169
:10537000807F02D0B3F1C07F57D1236B43B1B3F527
:10538000001F05D0B3F5800F02D0B3F5C00F51D187
:10539000002384F83430022384F8353022681368FF
:1053A00023F00103136023681A6812F0010F46D03E
:1053B00000F01CFA401B0528F5D920236365032063
:1053C00084F8350070BDC9213F4801F045FE8CE7E7
:1053D000CA213D4801F040FE8DE7CB213A4801F05B
:1053E0003BFE8EE7CC21384801F036FE8FE7CD2119
:1053F000354801F031FE92E7CE21334801F02CFE12
:1054000095E7CF21304801F027FE97E7D0212E48BD
:1054100001F022FE9DE7D1212B4801F01DFE9CE703
:10542000D621294801F018FE9CE7D721264801F033
:1054300013FEA2E7D821244801F00EFEA8E71A685F
:10544000224810406168A2680A43E1680A43216962
:105450000A4361690A43A1690A43E1690A43216A6F
:105460000A430243616A04291ED01A6026687569DE
:1054700025F00705636A1D43042B07D1A36A1D436A
:10548000E36A1BB12046FFF793FE90B97561204691
:10549000FFF770FEE26D3F2393408360002060655C
:1054A000012384F835308DE7E16A206B01430A431C
:1054B000DBE740236365012084F8350082E70120A3
:1054C00080E700BF106002404C8100083F8010F070
:1054D000F0B583B0044600230193724B1D68724BF4
:1054E000A3FB0535AD0A876D3E68C26D0823934066
:1054F000334210D003681A6812F0040F0BD01A68F8
:1055000022F004021A60C26D08239340BB60436D11
:1055100043F001034365E26D01239340334209D018
:105520002268526912F0800F04D0BB60636D43F0B3
:1055300002036365E26D04239340334209D022687D
:10554000126812F0020F04D0BB60636D43F00403D5
:105550006365E26D10239340334224D022681268C1
:1055600012F0080F1FD0BB6023681A6812F4802F56
:105570000DD01B6813F4002F04D1236C9BB120467F
:10558000984710E0A36C73B1204698470BE01A6867
:1055900012F4807F03D11A6822F008021A60236C8B
:1055A0000BB120469847E26D20239340334255D0FB
:1055B0002268126812F0100F50D0BB6094F835309A
:1055C000DBB2052B0ED023681A6812F4802F33D07B
:1055D0001B6813F4002F2AD1636C002B3ED02046A9
:1055E00098473BE02268136823F016031360226893
:1055F000536923F080035361236CA3B122681368BD
:1056000023F008031360E26D3F239340BB60002347
:1056100084F83430012384F83530236D002B3FD0DB
:10562000204698473CE0A36C002BE7D1EBE7E36B07
:10563000A3B12046984711E01A6812F4807F09D17F
:105640001A6822F010021A60002384F83430012313
:1056500084F83530E36B0BB120469847636DFBB19E
:10566000636D13F0010F17D0052384F835302268DD
:10567000136823F001031360019B01330193AB42D4
:1056800004D823681B6813F0010FF5D1002384F8B8
:105690003430012384F83530E36C0BB12046984751
:1056A00003B0F0BD4C000020B5814E1B10B5044680
:1056B000C31E042B0FD80A4AD36823F4E0631B04EB
:1056C0001B0C240204F4E064234343F0BF6343F45F
:1056D0000033D36010BDA221024801F0BDFCEAE70F
:1056E00000ED00E0C881000870B505460C4616467E
:1056F0000F2A25D80F2C28D81B4BDB68C3F30223B5
:10570000C3F10702042A28BF0422191D062921D942
:10571000033B4FF0FF3101FA02F224EA02049C40FD
:1057200001FA03F326EA03063443002D14DB2401B7
:10573000E4B205F1604505F5614585F8004370BDAB
:10574000BA210A4801F088FCD4E7BB21074801F0E0
:1057500083FCD1E70023DCE705F00F052401E4B268
:10576000034B5C55EBE700BF00ED00E0C88100088B
:1057700014ED00E010B5041E08DB04F01F026409FC
:1057800001239340044A42F8243010BDCE2103483F
:1057900001F062FCF1E700BF00E100E0C881000811
:1057A00008B50B4B1A6842F400721A601A6842F48A
:1057B00080621A601A6842F480721A600320FFF750
:1057C00075FF0020FBF74AFDFBF726FD002008BD12
:1057D000003C0240034A1168034B1B780B441360E2
:1057E000704700BF3849002048000020014B18686E
:1057F000704700BF3849002038B50446FFF7F6FF70
:105800000546B4F1FF3F02D0044B1B781C44FFF760
:10581000EDFF401BA042FAD338BD00BF4800002076
:105820000F49D1F8883043F47003C1F888300D4B2C
:105830001A6842F001021A60002098601A6822F08B
:10584000847222F480321A60074A5A601A6822F47D
:1058500080221A60D8604FF000638B60704700BFF1
:1058600000ED00E0003802401030002400F1080391
:1058700043604FF0FF328260C36003610023036026
:10588000704700230361704743684B609A688A60E1
:105890009A6851609960086103680133036070473A
:1058A00030B40D68B5F1FF3F02D000F1080202E00C
:1058B000026904E01A4653681C68AC42FAD953687E
:1058C0004B6099608A60516008610368013303602E
:1058D00030BC7047036942688168916082684168A2
:1058E00051605A68824205D000220261186801386E
:1058F0001860704782685A60F6E70000084B1B6822
:105900001B683BB1064B1B68DB68DB685A68054BBC
:105910001A607047034B4FF0FF321A60704700BFA8
:105920003C060020100700202DE9F04780469946EC
:10593000089D099F0A9C266B02F18042013A06EB02
:10594000820626F0070600230F2B07D8C85CE21852
:1059500082F83400CA5C0AB10133F5E7002384F809
:105960004330062D00D90625E56265644FF0000A34
:10597000C4F848A0201DFFF784FF04F11800FFF7CA
:1059800080FF2461C5F10705A5616462C4F84CA0DD
:1059900084F850A04A464146304600F057FB20604C
:1059A00007B13C60BDE8F08738B5002407E004EBA0
:1059B000840293000E481844FFF758FF0134062C68
:1059C000F5D90C4D2846FFF751FF0B4C2046FFF749
:1059D0004DFF0A48FFF74AFF0948FFF747FF09480C
:1059E000FFF744FF084B1D60084B1C6038BD00BF2B
:1059F00044060020E8060020FC06002018070020CE
:105A000044070020300700203C060020400600200C
:105A100010B5044600F046FB204A136801331360BA
:105A20001F4B1B685BB11F4B1B686BB91C4B1B6882
:105A3000DA6AE36A9A4207D8194B1C6004E0184BF3
:105A40001C601368012B26D0174A136801331360BA
:105A5000E36A01229A401549086802430A6003EB91
:105A600083039A00211D12481044FFF70DFF00F038
:105A70003BFB0C4B1B686BB1094B1B68DA6AE36A92
:105A80009A4207D20B4B4FF080521A60BFF34F8FF0
:105A9000BFF36F8F10BDFFF787FFD5E7D00600205B
:105AA000380600202C070020E0060020E406002035
:105AB0004406002004ED00E070B504460E461D4B80
:105AC0001D681D4B18680430FFF704FF50B91A4BCE
:105AD0001B68DA6A012303FA02F218490B6823EA09
